:020000040800F2
:10000000100A002001010008372A0008DF23000839
:10001000352A0008B90900086D300008000000000A
:10002000000000000000000000000000872C000815
:10003000BB09000800000000852C0008892C00087E
:100040001B0100081B0100081B0100081B01000820
:100050001B0100081B0100081B0100081B01000810
:100060001B0100081B0100081B0100081B01000800
:100070001B0100081B0100081B0100081B010008F0
:100080001B0100081B0100081B0100081B010008E0
:100090001B0100081B0100081B0100081B010008D0
:1000A0001B0100081B0100081B0100081B010008C0
:1000B000F92C00081B0100081B0100081B010008A7
:1000C0001B0100081B0100081B0100081B010008A0
:1000D0001B0100081B0100081B0100081B01000890
:1000E0001B0100081B0100081B010008DFF80CD0F1
:1000F00000F0D4FA004800473D330008100A002001
:100100000648804706480047FEE7FEE7FEE7FEE7B1
:10011000FEE7FEE7FEE7FEE7FEE7FEE7F52C000858
:10012000ED000008202A04DB203A21FA02F0002129
:10013000704721FA02F3D040C2F1200291400843F7
:1001400019467047D2B201E000F8012B491EFBD2DC
:1001500070470022F6E710B513460A4604461946D2
:10016000FFF7F0FF204610BD2DE9FE4F81EA0304A2
:1001700004F0004421F0004100944FF0000B23F004
:10018000004350EA01045ED052EA03045BD0C3F39B
:100190000A54C1F30A552C44A4F2F3340194A0FB91
:1001A0000254C1F3130141F48011C3F3130343F468
:1001B000801301FB024400FB034E840A970A44EAC1
:1001C000815447EA8357A4FB076802958D0A05FB13
:1001D00007854FEA932C04FB0C542705029D4FEA38
:1001E000065847EA1637B5EB08056EEB070C870E85
:1001F000920E47EA811742EA8312A7FB0201B6EB8F
:100200000B0164EB00042B0D43EA0C335E1844EB46
:100210001C50DA465146E7FB0201C5F313044FEACE
:100220000B3343EA14534FEA0432019C43EA0603BA
:10023000A4F10C040294009CCDE900B400F0C4F8D1
:1002400003B0BDE8F08F00200146F9E72DE9F04D3D
:1002500081EA030404F0004B21F0004514464FF0FE
:10026000000A23F0004150EA050220D054EA0102BE
:100270001DD0C5F30A570246C5F31303C1F313009B
:10028000C1F30A5640F4801543F48013A7EB060827
:10029000101BD64608F2FD3873EB050002D308F1B7
:1002A000010801E092185B41B8F1000F03DA002069
:1002B0000146BDE8F08D00204FF4801106468446CB
:1002C0000EE0171B73EB050705D3121B63EB050349
:1002D00006434CEA010C49084FEA300092185B4192
:1002E00050EA0107EDD152EA030012D082EA04007D
:1002F00083EA0501084305D0101BAB4106D2012259
:10030000002306E000224FF0004302E06FF00102FC
:1003100053101AEB06004CEB085110EB0A0041EBAE
:100320000B01BDE8F04D00F040B80EB5C10F80EAFA
:10033000E0700844CA07002140F233438DE80E0004
:100340000A460B4600F040F803B000BDC1F30A5264
:1003500010B5C1F3130140F2FF3341F480119A420A
:1003600001DA002010BD40F233439A42A2F2334238
:1003700003DC5242FFF7D6FE10BD904010BD30B5F1
:100380000B46014600202022012409E021FA02F553
:100390009D4205D303FA02F5491B04FA02F52844ED
:1003A000151EA2F10102F1DC30BD10B5141E73F16F
:1003B000000408DA401C41F1000192185B411A4325
:1003C00001D120F0010010BD2DE9F04D92469B4671
:1003D00011B1B1FA81F202E0B0FA80F22032904617
:1003E00000F06EF904460F4640EA0A0041EA0B01AC
:1003F00053465A46084313D0114653EA010019D018
:10040000C8F140025046FFF78DFE05460E465046A5
:100410005946424600F054F9084305D0012004E053
:1004200020463946BDE8F08D0020054346EAE076D7
:100430002C4337430A986305E40AA0EB0800002226
:10044000FD0A44EA47540A3002D500200146E9E794
:10045000010510196941DDE9084500196941BDE848
:10046000F04DA2E72DE9FE4F804681EA0300C00F60
:100470000C46009021F0004123F00045B8EB02004B
:10048000A94105D24046214690461C460B460246ED
:1004900023F00040104347D0270DC7F30A00C3F3F1
:1004A0000A510290401A019040286BDAC3F31300FE
:1004B00040F4801B0098924620B10023D2EB030A3F
:1004C00063EB0B0B01985946C0F14002504600F017
:1004D000F7F806460D4650465946019A00F0FFF8D7
:1004E00010EB08006141002487EA115284EAE773A7
:1004F0001A4340D0009A62B3019A012A4FEA075288
:1005000015DC001B61EB02014FF0004202EA0752CA
:10051000CDE90042001C41F5801132462B46FFF721
:1005200053FF03B0BDE8F08F40462146F9E7001BBA
:1005300061EB0201001C41F5801300185B4120189B
:10054000A2F5001747EB030140EAD570B6196D41DB
:1005500011E06D084FEA360645EAC0754FEA0752CA
:10056000001B61EB0201001C41F5801149084FEAB4
:1005700030000019514132462B4603B0BDE8F04F20
:10058000FFF713BF0098012240000023D0EB0202C6
:1005900063EBE073009821464FEAE074B8EB00008B
:1005A00061EB0401E9E783F000435BE781F0004180
:1005B00058E700002DE9F041054621F000400C46C7
:1005C000284309D0C4F30A5040F23341884205DD84
:1005D00028462146BDE8F0812846FBE740F2FE317F
:1005E000884210DC0CDB4FEA043040EA155050EA38
:1005F000053105D0104804F0004101430020E9E72F
:1006000000200146E6E7A0F233404642C6F1400230
:100610002846214600F054F80746884628462146D9
:100620003246FFF77FFD43463A46FFF7BEFE3246AD
:10063000BDE8F04100F044B80000F03F30B5041EC2
:1006400071F1000404DB4FF00044404264EB01010F
:10065000141E73F1000405DB1C464FF000435242A8
:1006600063EB04038B4208BF824230BD30B5041EE9
:1006700071F1000404DB4FF00044404264EB0101DF
:10068000141E73F1000405DB1C464FF00043524278
:1006900063EB0403994208BF904230BD064C074DFE
:1006A00006E0E06840F0010394E807009847103442
:1006B000AC42F6D3FFF71EFD083B0008283B0008BC
:1006C000202A04DB203A00FA02F100207047914012
:1006D000C2F1200320FA03F3194390407047202A07
:1006E00006DBCB17203A41FA02F043EAE07306E05A
:1006F00041FA02F3D040C2F120029140084319466A
:100700007047000070B5044600688168C943C90796
:1007100017D1816821F00101816000F0C1FC05461C
:100720000AE000BF00F0BCFC401B022804D920688E
:100730008068C043C00706D020688068C043C007F7
:10074000F0D0002070BDA06A40F01000A062E06A06
:1007500040F00100E062012070BD0000F8B5002605
:100760000446009600688168C943C9072DD0816896
:1007700041F001018160164816490068B0FBF1F0B4
:1007800000E0401E00900028FBD100F089FC0546E7
:1007900016E000BF00F084FC401B022810D920683E
:1007A0008068C043C0070BD0A06A40F01000A06270
:1007B000E06A40F00100E06284F824600120F8BDA6
:1007C00020688068C043C007E4D10020F8BD000065
:1007D0002400002040420F0038B5524800F0F4FADF
:1007E0003221504800F052FA4F4CE07900284D4831
:1007F00002D000F08DF908E000F08AF981B24B4890
:1008000002F010FD4948B0F8D0006081454800F082
:10081000DBFA3221434800F039FA424800F078F917
:1008200081B24248D43002F0FDFC4048D430B0F8E8
:10083000D000A0813B4800F0C7FA3221394800F0CF
:1008400025FAE0790028374809D000F061F981B233
:10085000374802F00FFD3648B0F8D00001E000F054
:1008600057F960822F4800F0AFFA32212D4800F08E
:100870000DFA2C4800F04CF92082608940F68C215A
:10088000884201D90E2015E040F2C671884201D29B
:1008900000200FE0A0F2C670FFF747FD0022254BB5
:1008A000FFF762FC0022244BFFF7D0FC02F0A8FF08
:1008B000FFF74CFD6070608AA18A884209D81FA2A8
:1008C0000121202002F052F9627800216F2002F00D
:1008D000B3F961891CA002F0CBFBA089B0F57A7F47
:1008E00001D91F4801E01E480830082300901A462D
:1008F0000021652000F062F8A1891AA002F0B8FB7F
:10090000618A1DA002F0B4FB218A22A002F0B0FB94
:1009100025A00090238A26A20221002002F0C0FE1A
:1009200038BD0000B4020020000000203800002084
:10093000E001002000002C400030864020202020D4
:100940002020202020200000626174746172795F91
:10095000766F6C746167653A25640D0A00000000CB
:1009600094380008736F6C61725F766F6C746167A6
:10097000653A25640D0A0000626174746172795FE2
:100980006368617267655F63757272656E743A253C
:10099000640D0A004C45445F63757272656E743A6B
:1009A00025640D0A00000000202020202000000007
:1009B0004C45443A00000000FEE770472DE9F05F27
:1009C00083460026DDF8289090468A46580704D0D2
:1009D000012000EBD307002415E0DF08FBE700BF90
:1009E0000AEB0400C1B2584602F0EEF8002506E01A
:1009F00019F80600761C02F00DF96D1CEDB24545A4
:100A0000F6D3641CE4B2BC42EAD3BDE8F09F72B6F0
:100A1000FEE70000F8B50024009490F82420254655
:100A2000012A12D0012280F824204A681F23072AB5
:100A30000DD20668776B521E02EB820293409F43F1
:100A40000B6893401F43776319E00220F8BD0668E6
:100A50000D2A0AD2376BD21F02EB820293409F43CA
:100A60000B6893401F43376309E0F76A0D3A02EBC6
:100A7000820293409F430B6893401F43F7620A68CA
:100A8000072306680A2A0AD3F7680A3A02EB4202E9
:100A900093409F438B6893401F43F76008E037699A
:100AA00002EB420293409F438B6893401F433761A0
:100AB0000A68102A01D0112A20D1124B02689A42EA
:100AC00017D193681B0219D4936843F40003936011
:100AD0000968102912D10C490C4A0968B1FBF2F1DE
:100AE00001EB8101490000E0491E00910029FBD182
:100AF00004E0816A41F020018162012480F82450E1
:100B00002046F8BD002401402400002040420F0090
:100B10000068C06C704700002DE9F0414FF00007FD
:100B200004003D467ED0A06A002628B9E66284F81B
:100B30002460204600F07EF82046FFF7E3FDA16A1E
:100B4000C90600D420B1A06A40F01000A06269E09C
:100B5000A16A21F4885141F00201A1626268E16951
:100B6000237B0A4347EA43010A43A1684FF4807795
:100B7000B94209D0012907D05FF0000194F814C0F0
:100B8000BCF1010F02D00AE03946F7E7F3B1A36ADE
:100B900043F02003A362E36A43F00103E3622368A6
:100BA000D3F804C02CF4694C4CEA010CC3F804C01F
:100BB00021688B68DFF870C003EA0C0313438B6075
:100BC000A168B9420BD0012909D00CE0DFF85CC064
:100BD000A3690CEB43330B4343F40061DFE7218A45
:100BE0000D05A5F580152168CB6A23F470032B430E
:100BF000CB62216889680E4B1940914208D1E662A8
:100C0000A16A21F0020141F00101A162BDE8F08179
:100C1000A06A20F0020040F01000A062E06A40F0FC
:100C20000100E0620120F1E7FDF7E1FF00E0FFFFD6
:100C3000FE0E1FFF00B585B00021009101910291C9
:100C4000039100680E49884218D10E48816941F429
:100C500000718161816901F400710491816941F041
:100C6000040181618069694600F0040004900F204E
:100C7000009003200190044800F018F905B000BD71
:100C80000024014000100240000801402DE9F84313
:100C900000270D460446009700F002FA80462068BF
:100CA0008168C90508D5A06A40F02000A06284F8D8
:100CB00024700120BDE8F8834168C90503D4C06AE7
:100CC00010F4700F2AD0022000F014FC3B49096890
:100CD000B1FBF0F62068036939490B424FEA610124
:100CE0004FEAA1121FD1C3684FEA611C13EA0C0F2F
:100CF00019D103690B4225D1C068104222D11420BA
:100D000023E0681C0AD02DB100F0CAF9A0EB08005E
:100D1000A84203D920680068800725D520680068AC
:100D20008007EED52DE003690B4202D1C168114264
:100D300006D0026923490A4206D1C068084203D19D
:100D4000542002E0292000E0FC204643009816E0F1
:100D5000681C11D02DB100F0A3F9A0EB0800A84247
:100D60000AD90098B04207D2A06A40F00400A062FD
:100D700084F8247003209DE70098401C0090B04246
:100D8000E6D321686FF012000860A06A40F400709A
:100D9000A06220688068C0F3424007280CD1207B05
:100DA00050B9A06A20F48070A062A06AC00403D485
:100DB000A06A40F00100A06200207BE72400002030
:100DC000244992244992240070B5044690F82400E6
:100DD00001280DD0012084F824002046FFF7BEFC36
:100DE00002004FF0000005D084F82400104670BDCA
:100DF000022070BDA16A40F20123994341F4807141
:100E0000A1621F4D23681F49AB4218D10E6816F42A
:100E1000702F14D0A66A46F48016A6620E68760576
:100E200005D5A66A26F4005646F48056A662A66A40
:100E3000F6040AD5E66A26F00606E66206E0A66A29
:100E400026F48016A6625E68E9E7E06284F8240072
:100E50006FF00200186020688368C3F34243072BD9
:100E600005D1A84208D1096811F4702F04D0816817
:100E700041F480118160B9E7816841F4A001F9E78C
:100E8000002801400424014070B5044600F008F930
:100E90000546601C02D004480078044400F000F9C4
:100EA000401BA042FAD370BD180000202DE9F84F76
:100EB000DFF8B8910024A9F1040B23460F2709F1AC
:100EC000040AABF1040EC9E00125A5402A40AA425C
:100ED0007DD1674ED1F804C0ACEB0608B44532D0E2
:100EE00014DCBCF1030F3AD009DCBCF1000F2AD0AE
:100EF000BCF1010F1CD0BCF1020F31D11DE0BCF1DF
:100F0000110F17D0BCF1120F2AD119E0B8F5881FC4
:100F100019D006DCB8F5803F15D0B8F5801F1FD179
:100F200011E0B8F5001F0ED0B8F5041F18D10AE083
:100F3000CB6815E0CB681B1D12E0CB6808330FE0CF
:100F4000CB680C330CE08B682BB1012B4FF00803FE
:100F500003D0456104E0042302E0056100E00023C2
:100F6000FF2A01D8064601E000F104064FEA840595
:100F700001D9A5F12005D6F8008007FA05FC28EA7A
:100F80000C0803FA05F548EA0508C6F800804D6824
:100F9000ED0062D5374DAE6946F00106AE61AD6930
:100FA00024F0030605F001050095334D06EB050C12
:100FB000DCF80850A607360F07FA06F825EA0805F8
:100FC000DFF8B880404503D14FF0000817E044E057
:100FD000DFF8AC80404502D14FF001080FE0DFF8A8
:100FE000A480404502D14FF0020808E0DFF8988065
:100FF000404502D14FF0030801E04FF0040808FA21
:1010000006F848EA0508CCF808804D68D9F8006071
:10101000ED024D4601D5164300E096432E604D6823
:10102000DAF80060AD02554601D5164300E096435C
:101030002E604D68DBF80060AD035D4601D51643B8
:1010400000E096432E604D68DEF80060ED037546C3
:1010500001D5164300E096432E60641C0D682A46B5
:10106000E5407FF431AFBDE8F88F0000080401408F
:101070000000111000100240000001400008014073
:10108000000C01400010014000140140806808403D
:1010900000D0012070470AB1016170470904FBE7E5
:1010A00001488068704700001800002070B50400F7
:1010B00025D094F83D00002520B984F83C50204606
:1010C00000F050F9242084F83D002068016821F0E8
:1010D000010101602068016841F40041016020685D
:1010E000016821F40041016000F062FB4D4A616833
:1010F000914201D84C4900E04C49884201D201207C
:1011000070BD4B492368B0FBF1F15E6826F03F06E5
:101110000E435E606368934206D94FF49673594359
:101120004FF47A73B1FBF3F12368491C1E6A26F071
:101130003F06314319626168914210D84900401E50
:10114000B0FBF1F2521CC2F30B02042A01D20420BC
:1011500022E0B0FBF1F0401CC0F30B001CE0A268E1
:10116000F2B301EBC10303EB0116431EB3FBF6F32D
:101170005B1C43F480431B0549D092B301EBC102D1
:1011800002EB0111401EB0FBF1F0401CC0F30B005C
:1011900040F4804040F400402168CA694CF6FF7377
:1011A0009A431043C861D4E90710014320680268DC
:1011B00022F0C00211430160D4E903010143206819
:1011C000826848F2FF339A4311438160D4E90501F4
:1011D00008432168CA6822F0FF021043C86001E09A
:1011E0000EE016E02068016841F00101016025640D
:1011F000202084F83D00256384F83E50002070BD17
:1012000001EB4106431EB3FBF6F35B1CB3E7012081
:10121000C2E701EB4101401EB0FBF1F0401CC0F3FE
:101220000B00B7E7A086010080841E0000093D0086
:1012300040420F002DE9FF4F83B09A46DDE9119738
:1012400093460446DDF84080FFF72AFF054694F8F0
:101250003D0020287FD119230122404920460095D6
:1012600001F056F9002876D194F83C00012872D09C
:10127000012084F83C0020680168C90703D1016897
:1012800041F0010101602068016821F40061016002
:10129000212084F83D00402084F83E00002626648A
:1012A000C4F82480A4F82A90608D20852C48E06240
:1012B000CDE9007553465A462046049901F0A8F836
:1012C00070B930E02A463946204601F0C7F958B1D6
:1012D000206C042804D12068016841F40071016089
:1012E000012007B0BDE8F08F606A216800780861CE
:1012F000606A401C6062218D491E89B22185628D21
:10130000521E628522685369DB435B070BD469B1C7
:1013100000781061606A401C6062208D401E20854C
:10132000608D401E6085208D0028CBD12A4639462D
:10133000204601F0C1F80028CAD154F83D0B0168DD
:1013400041F400710160202004F81E09E6776677F9
:101350000020C6E7FFE70220C3E7000002001000FC
:101360000000FFFF10B586B00021009101910291AD
:1013700003910068104988421BD1104CA06940F0CD
:101380000800A061A069694600F0080004904FF4CD
:101390004060009012200190032003900848FFF75E
:1013A00085FDE06940F48000E061E06900F48000C0
:1013B000049006B010BD000000580040001002402C
:1013C000000C014002488168027811448160704736
:1013D00018000020074810B5016841F010010160B5
:1013E000032000F075F8002000F006F800F024F863
:1013F000002010BD0020024070B50D4D04464FF492
:101400007A712878B1FBF0F00A490968B1FBF0F075
:1014100000F0A4FB48B9102C07D200222146501E30
:1014200000F036F800206C6070BD012070BD000037
:1014300018000020240000200C4808B5816941F004
:1014400001018161816901F001010091C16941F0EF
:101450008051C161C06900F080500090044841682B
:1014600021F0E06141F00071416008BD00100240D0
:1014700000000140002809DB00F01F02012191401B
:101480004009800000F1E020C0F800117047000022
:10149000F0B40E4B1B680C46C3F30223C3F10705DF
:1014A000042D00D90425191D072901D2002300E0CD
:1014B000DB1E012606FA05F1491E214099409E4097
:1014C000761E16403143F0BC01F0E2BD0CED00E0A9
:1014D000064900F0070208684FF6FF03184040EA8B
:1014E0000220034A10430860704700000CED00E042
:1014F0000000FA0510B501460020234C012922D036
:10150000022939D010291DD161682268D20119D56C
:101510001E48C1F38342C903805C0AD561681B4A37
:10152000C1F34041921E515C194AB2FBF1F14843AC
:1015300001E0184948436168490203D4400003218F
:10154000B0FBF1F010BD226AC2F30121012903D1E1
:10155000920701D5C80310BD022905D1626A92071E
:1015600002D549F6404010BD0329FCD1216889030A
:10157000F9D54FF2244010BD00F02AF96168C1F39B
:101580008131491C4900DBE700100240B8380008EF
:1015900000127A0000093D002DE9F8430546007865
:1015A000354CC00754D0E0690026C00008D4E0697B
:1015B00040F08050E061E069012600F0805000902A
:1015C0002E480168C90512D40168804641F4807133
:1015D0000160FFF765FD074605E000BFFFF760FD0E
:1015E000C01B642823D8D8F80000C005F6D5206AAF
:1015F00010F4407021D0A98801F4407181421CD0C0
:10160000206A1F49012220F440700A6000220A600B
:101610002062C00711D0FFF743FD074641F288382A
:1016200008E000BFFFF73CFDC11B414502D9032084
:10163000BDE8F883206A8007F4D5206A696820F441
:101640004070084320621EB1E06920F08050E061E4
:101650002878800705D56068A96820F440400843D1
:1016600060602878C00605D56068E96820F48000CD
:10167000084360600020DBE700100240007000407B
:10168000400442422DE9F0470F46050061D0434E29
:10169000306800F00700B84209D2306820F0070037
:1016A00038433060306800F00700B84251D12868F4
:1016B0003B4C810712D5400703D5606840F4E060D9
:1016C00060602878000703D5606840F4605060606F
:1016D0006068A96820F0F000084360602878C007BF
:1016E00028D06868012810D02168022810D0890706
:1016F00000292EDA616821F0030101436160FFF7E0
:10170000CFFC804641F288390DE021688903EFE77C
:101710008901EDE7FFF7C4FCA0EB0801494502D9B8
:101720000320BDE8F0876068696800F00C00B0EB4A
:10173000810FEFD1306800F00700B8420BD9306854
:1017400020F0070038433060306800F00700B842EE
:1017500001D00120E5E72878400705D56068E968F1
:1017600020F4E060084360602878000706D56068D0
:10177000296920F4605040EAC100606000F038F848
:101780006168084AC1F30311515CC840064908600A
:1017900006480068FFF730FE0020C2E70020024044
:1017A00000100240C8380008240000201C0000205F
:1017B0000448054900684968044AC1F30221515CA4
:1017C000C84070472400002000100240D8380008AC
:1017D0000448054900684968044AC1F3C221515CC4
:1017E000C84070472400002000100240D83800088C
:1017F0000E4A51680E4801F00C03042B11D0082B3F
:101800000FD10C48C1F38343C903C05C0AD55168AA
:10181000084AC1F34041921E515C054A5043B0FB57
:10182000F1F070470449484370470000001002403F
:1018300000127A00A638000800093D002DE9F84F93
:10184000040070D02078C04DC00749D06868C0F34C
:101850008100012807D06868C0F38100022809D1FF
:101860006868C00306D52868800339D560680028F9
:10187000E7D035E06068B0F5803F0BD010B1B0F52F
:10188000A02F11D0286820F480302860286820F428
:10189000802002E0286840F480302860606890B1C1
:1018A000FFF7FEFB06460AE0286840F48020286027
:1018B000F0E700BFFFF7F4FB801B642873D82868AB
:1018C0008003F7D50CE0FFF7EBFB064605E000BF11
:1018D000FFF7E6FB801B6428F0D828688003F7D464
:1018E00020789A4E80074FF001094FF0000839D553
:1018F000686810F00C0F07D06868C0F381000228F8
:1019000009D16868C00306D42868800714D5206907
:10191000012808D110E02069B0B1C6F80090FFF7A7
:10192000BFFB074605E00AE1FFF7BAFBC01B022830
:10193000C4D828688007F7D52868616920F0F800C6
:1019400040EAC10028600DE0C6F80080FFF7A8FB60
:10195000074604E0FFF7A4FBC01B022823D8286831
:101960008007F7D4207800072CD57948A169D9B130
:10197000C0F80090FFF794FB074604E0FFF790FBE8
:10198000C01B02280FD8686A8007F7D571484FF44A
:10199000FA510068B0FBF1F0009000BF0098411EC2
:1019A0000091FAD20EE080E0C0F80080FFF778FBEB
:1019B000074604E0FFF774FBC01B022875D8686A6D
:1019C0008007F7D42078400760D5E8690027C00079
:1019D00008D4E86940F08050E861E869012700F028
:1019E000805000905C480168C90513D401688346A3
:1019F00041F480710160FFF753FB824606E000BFAF
:101A0000FFF74EFBA0EB0A0064284ED8DBF800007D
:101A1000C005F5D5E06801280AD008B1052813D023
:101A2000286A20F001002862286A20F0040002E001
:101A3000286A40F001002862E06841F2883B98B1D2
:101A4000FFF72EFB82460BE0286A40F00400286274
:101A5000EEE700BFFFF724FBA0EB0A0159455AD877
:101A6000286A8007F6D50CE0FFF71AFB824605E0EE
:101A7000FFF716FBA0EB0A0159454CD8286A8007EE
:101A8000F6D41FB1E86920F08050E861E06988B3BE
:101A90006968C1F38101022944D00228C6F8608038
:101AA00004D0FFF7FDFA044638E034E0FFF7F8FA17
:101AB000074604E0FFF7F4FAC01B02282BD8286879
:101AC0008001F7D4206AB0F5803F05D16868A1682D
:101AD00020F4003008436860D4E9080108436968CD
:101AE00021F4741108436860C6F86090FFF7D8FAD3
:101AF000044606E025E000BFFFF7D2FA001B0228EB
:101B000009D828688001F7D51BE000BFFFF7C8FAA5
:101B1000001B022802D90320BDE8F88F2868800145
:101B2000F4D40EE00128F7D06868226A00F480310E
:101B3000914204D1616A00F47010884201D0012002
:101B4000EAE70020E8E700000010024000004242FF
:101B500080044242240000200070004010B5401E66
:101B6000B0F1807F01D3012010BD4FF0E02460610F
:101B70000F21601701F08CFA0020A061072020617E
:101B8000002010BD7047704710B590F83C20012A26
:101B900022D0012280F83C20CA688C6822F440726E
:101BA00022434C6822F4806222430C6822F40062D3
:101BB00022430C6922F4805222434C6922F40052E1
:101BC0002243C969002322F480420A4301684A641F
:101BD00080F83C30002010BD022010BD70B590F898
:101BE0003C20012A26D0012480F83C40022280F8C3
:101BF0003D2003685A689D6822F070060A683243E7
:101C00005A600D4B02689A4208D0B2F1804F05D05D
:101C10000A4B9A4202D00A4B9A4204D1496825F0F5
:101C200080031943916080F83D40002180F83C100A
:101C3000084670BD022070BD002C01400004004029
:101C40000008004010B5040003D094F83D0010B126
:101C500007E0012010BD002084F83C00204600F081
:101C60001FF8022084F83D00211D206801F04AF889
:101C7000012084F8460084F83E0084F83F0084F890
:101C8000400084F8410084F8420084F8430084F85E
:101C9000440084F8450084F83D00002010BD000099
:101CA00008B5114A01681148914208D1816941F48F
:101CB00000618161806900F40060009008BDB1F1AD
:101CC000804FFBD1C16941F00101C161C0690022AF
:101CD00000F00100009001211C20FFF7D9FBBDE8B6
:101CE00008401C20FFF7C6BB002C0140001002403A
:101CF00090F83D10012901D001207047022180F8A1
:101D00003D100168CA6842F00102CA6000680B49D0
:101D1000884208D0B0F1804F05D00949884202D0EE
:101D20000849884204D1816801F00701062903D0DF
:101D3000016841F00101016000207047002C014062
:101D4000000400400008004070B5044690F83C00D4
:101D50000025012817D0012684F83C60022084F871
:101D60003D002068826822F0770222F47F42826080
:101D70000868502838D00DDC20284FD005DC90B3FF
:101D8000102811D14AE0022070BD302846D04028EA
:101D90000AD13BE060282FD070280DD0B0F5805FCD
:101DA00003D0B0F5005F12D0012584F83D6000201B
:101DB00084F83C00284670BDCB68D1E90121206839
:101DC00000F0E3FF2068816841F0770109E0CB680B
:101DD000D1E90121206800F0D8FF2068816841F432
:101DE00080418160E1E719E0CA684968206801F034
:101DF00081F85021206806E0CA684968206801F02F
:101E00008AF86021206800F0CAFFCEE7CA684968F6
:101E1000206801F06FF840212068F4E7226801464D
:101E20001046F0E7704770B50446006801694FF04E
:101E30000005C943890715D4C168C943890711D46E
:101E4000E91E016101202077206880698007204613
:101E500002D0FFF7E7FF04E000F0BEF8204600F0F4
:101E600050F9257720680169C943490717D4C1682B
:101E7000C943490713D46FF00401016102202077A0
:101E80002068806910F4407F204602D0FFF7CAFF27
:101E900004E000F0A1F8204600F033F9257720682F
:101EA0000169C943090716D4C168C943090712D497
:101EB0006FF008010161042020772068C069800765
:101EC000204602D0FFF7AEFF04E000F085F8204680
:101ED00000F017F9257720680169C943C90617D4AE
:101EE000C168C943C90613D46FF01001016108200D
:101EF00020772068C06910F4407F204602D0FFF7A9
:101F000091FF04E000F068F8204600F0FAF8257729
:101F100020680169C943C90708D1C168C943C90715
:101F200004D1891E0161204600F072F92068016920
:101F3000C943090609D4C168C943090605D46FF02D
:101F4000800101612046FFF71DFE20680169C94339
:101F5000490609D4C168C943490605D46FF0400158
:101F60000161204600F07AF920680169C9438906B9
:101F70000BD4C168C943890607D46FF02001016101
:101F80002046BDE87040FFF7FEBD70BD00B585B0CE
:101F90000021009101910291039100680B49884250
:101FA00012D10B48816941F0040181618069694661
:101FB00000F0040004904FF4407000900220019063
:101FC00003900448FEF772FF05B000BD002C0140ED
:101FD0000010024000080140704770B5044690F8B8
:101FE0003C0000260D4601280FD0012084F83C005B
:101FF0006AB1042A1DD0082A2FD00C2A3FD001260E
:10200000002084F83C00304670BD022070BD20687E
:1020100000F0CEFE2068816941F0080181612068EE
:10202000816921F004018161206881692A69114375
:1020300011E0206800F0E4FE2068816941F400614D
:1020400081612068816921F48061816120688169F2
:102050002A6941EA02218161D2E7206800F0FCFE92
:102060002068C16941F00801C1612068C16921F09F
:102070000401C1612068C1692A69114311E0206827
:1020800000F016FF2068C16941F40061C161206859
:10209000C16921F48061C1612068C1692A6941EA8E
:1020A0000221C161ACE710B5040003D094F83D00F3
:1020B00010B107E0012010BD002084F83C0020464C
:1020C00000F01EF8022084F83D00211D206800F079
:1020D00019FE012084F8460084F83E0084F83F0091
:1020E00084F8400084F8410084F8420084F84300FA
:1020F00084F8440084F8450084F83D00002010BDB9
:102100007047704710B50446022249B104290ED029
:10211000082913D094F84100012816D0012010BDE1
:1021200094F83E000128F9D184F83E200FE094F89D
:102130003F000128F2D184F83F2008E094F84000E5
:102140000128EBD184F8402001E084F841200122ED
:10215000206800F00DFE0F492068884203D1426CD0
:1021600042F4004242642068884208D0B0F1804FB7
:1021700005D00949884202D00849884204D18168C3
:1021800001F00701062903D0016841F00101016057
:10219000002010BD002C0140000400400008004059
:1021A00030B504460D460068002200F0E1FD174BF3
:1021B00041F2111120688A10984209D1036A0B423A
:1021C00006D1036A134203D1436C23F400434364F2
:1021D0002068036A0B4206D1016A114203D10168EB
:1021E00021F00101016001203DB1042D08D0082D2E
:1021F00009D084F84100002030BD84F83E00FAE7A1
:1022000084F83F00F7E784F84000F4E7002C014031
:1022100010B50068B0F1804F16D10C4C608AA18ACD
:10222000884211D90AA20121202000F09FFCA27847
:1022300000216F2000F000FDA078401CC0B2A0700B
:102240000E2801D96078A07010BD000000000020A9
:102250006368617267696E6700000000704770B55F
:10226000040004D094F84100002510B106E00120DC
:1022700070BD84F84050204600F024F8242084F8F3
:1022800041002068C16821F40051C160204600F07F
:1022900055FE2068016921F490410161206841697F
:1022A00021F02A0141612068C16841F40051C160F8
:1022B0006564202084F8410084F8420065630020B2
:1022C00070BD000030B585B00024009401940294E4
:1022D00003940068174988422AD11748816941F45C
:1022E00080418161816901F480410491816941F0FB
:1022F000080181618069114D00F0080004904020C0
:102300000090022001900320039069462846FEF7C2
:10231000CDFD8020CDE90004694628460294FEF7F1
:10232000C5FD0748416841F0E06141F004014160AA
:1023300005B030BD0038014000100240000C0140E3
:10234000000001402DE9F843044690F841001F4683
:1023500016460D46202802D00220BDE8F8837DB144
:1023600076B100206064212084F84100FEF798FED9
:10237000A6848046E684A068B0F5805F02D003E0C2
:102380000120EAE7206910B12E4600250EE0002664
:102390000CE08021204600F02DFEA0B9AEB116F869
:1023A000010B21684860E08C401EE084E08C4346CD
:1023B0004FF0000200970028EBD14FF0400120467B
:1023C00000F018FE30B10320C7E735F8020BC0F368
:1023D0000800E6E7202084F841000020BDE7FEE782
:1023E00001684A69D24352050FD46FF480624A6192
:1023F000002140F8301F202242738173026942F0AD
:102400000402026101730120704700207047000040
:102410002DE9F843044600680D46DDE90897016898
:102420009846164641F4807101604B4600224FF0F9
:1024300001112046009700F06BF848B12068006851
:10244000C00502D54FF4007020640320BDE8F88376
:10245000216805F0FE0008613B464A4615492046C2
:1024600000F09EF888B920684169806900903A467A
:102470004946204600F0F2F848B1206C042804D107
:102480002068016841F4007101600120DEE7F5B2C7
:10249000B8F1010F09D02168300A08613A4649466F
:1024A000204600F0DBF80028E7D120680561002015
:1024B000CCE700000200010070B516460D46044648
:1024C0001EE02046FFF78CFF08B1012070BD681C9C
:1024D00016D0FEF7E5FD801BA84200D885B920681C
:1024E0004069C04340070BD5002044F8300F20213D
:1024F0006173A073216941F0200121612073E4E739
:1025000020684069C0434007DBD4002070BD000054
:102510002DE9F047984617460D460446C1F3074695
:10252000DDF820902AE000BFB8F1FF3F26D0FEF78B
:10253000B7FDA0EB0901414502D8B8F1000F1DD14C
:102540002068012E16D0806925EA00000004000CE6
:1025500012D00020B84211D1002044F8300F2021C1
:102560006173A073216941F0200121612073012072
:10257000BDE8F0874069E7E70120EBE72068012E1E
:102580000AD0806925EA00000004000C06D0002073
:10259000B842C9D00020EBE74069F3E70120F7E734
:1025A0002DE9F047984616460D4604464FF00009BF
:1025B0004FF0200AC1F3074723E020684069C04379
:1025C000400515D42068016841F40071016021685C
:1025D0006FF480604861C4F8309084F83DA084F8BE
:1025E0003E90216C41F00401216484F83C9021E08C
:1025F000701C06D0FEF754FDA0EB0800B04203D8D3
:1026000016B1012F1FD021E02068012F15D080695D
:1026100025EA00000004000C18D000BF44F8309FE9
:1026200084F80DA084F80E90216941F02001216109
:1026300084F80C900120BDE8F087406925EA00008D
:102640000004000CEAD12068406901E0206880693C
:1026500025EA00000004000CAFD1ECE770B5164687
:102660000D4604461EE02046FFF7BAFE08B10120E1
:1026700070BD681C16D0FEF713FD801BA84200D861
:1026800085B920684069C04300060BD5002044F896
:10269000300F20216173A073216941F02001216175
:1026A0002073E4E720684069C0430006DBD40020C3
:1026B00070BD000070B52D4D2D4C012608B12E7057
:1026C00001E0287898B110212046FEF7DFFCA8B180
:1026D00020212046FEF7DAFC80B140212046FEF79B
:1026E000D5FC58B180212046FEF7D0FC30B1102136
:1026F0002046FEF7CBFC012822D034E00A20FEF76A
:10270000C3FB0020287010212046FEF7BFFC78B1E3
:1027100020212046FEF7BAFC60B140212046FEF79A
:10272000B5FC48B180212046FEF7B0FC30B11AE07C
:10273000012070BD022070BD032070BD042070BD5B
:1027400020212046FEF7A2FC01280CD14021204682
:10275000FEF79CFC012806D180212046FEF796FC5E
:10276000012800D12E70002070BD0000280000203C
:1027700000080140FEB500252048009501951E493E
:102780000295016089158160057301240475042692
:1027900006614FF460214560C0E90641FEF7BCF9CF
:1027A00008B1FEF734F9CDE90054694613480295A3
:1027B000FEF730F908B1FEF72AF9009402246946C1
:1027C0000E480194FEF726F908B1FEF720F90094AF
:1027D0000324694609480194FEF71CF908B1FEF785
:1027E00016F9CDE9004669460448FEF713F90028BA
:1027F00001D0FEF70CF9FEBD00240140B402002018
:1028000070B586B000241B48009401940294039490
:10281000816941F010018161816901F01001049129
:10282000816941F004018161816901F00401049131
:10283000816941F0080181618069012200F008008E
:102840000D4E5503049029463046FEF724FC022025
:10285000CDE9024000950125694601953046FEF715
:1028600025FBF0208DE8310069460448FEF71EFB89
:1028700006B070BD00100240001001400008014089
:102880000D4810B50B4901600C49416000214FF41F
:1028900080428160C0E9031241618161C1610162CE
:1028A000FEF704FC002803D0BDE81040FEF7AFB8E7
:1028B00010BD000000580040E4020020A086010086
:1028C00010B596B000240F941094119412941394A0
:1028D0001C2168461494FDF73CFC202107A8FDF755
:1028E00038FC2C482A4901600721C0E90114632102
:1028F000C0E9031444618461FFF7A4F908B1FEF74D
:1029000086F84FF480500F900FA92248FFF71CFA69
:1029100008B1FEF77CF81F48FFF7C5FB08B1FEF7CA
:1029200076F8139413A91B481494FFF757F908B1CC
:10293000FEF76DF86020CDE900040294039404943E
:1029400005940022694613480694FFF746FB08B138
:10295000FEF75DF8042269460E48FFF73EFB08B11A
:10296000FEF755F80794089409944FF400500A9420
:10297000CDE90B4007A907480E94FFF705F908B108
:10298000FEF745F80348FFF701FB16B010BD000045
:10299000002C01403803002010B586B000241648F2
:1029A000009401940294039404944FF080410594A0
:1029B000016041F63F71C0E90114F921C0E9031437
:1029C0008461FFF73FF908B1FEF721F84FF480501A
:1029D000009069460848FFF7B7F908B1FEF717F805
:1029E000049404A904480594FFF7F8F8002801D0DE
:1029F000FEF70DF806B010BD800300200C4810B59E
:102A00000A4901604FF4E1314160002181600C22EC
:102A1000C160C0E904128161C161FFF720FC002898
:102A200003D0BDE81040FDF7F2BF10BD00380140F3
:102A3000C8030020FEE7FEE720B1012804D1A7204B
:102A400000F0D6B8A620FBE7704710B548B10128C2
:102A50000CD1C02000F0CCF8A020BDE8104000F060
:102A6000C7B8C82000F0C4F8A120F6E710BD0000E8
:102A700070B506465FF0000404F1B000C0B200F08B
:102A8000B7F8002000F0B4F8102000F0B1F80025ED
:102A9000304600F0BFF86D1CEDB2802DF8D3641CF9
:102AA000E4B2082CE8D370BD10B54FF4FA7000F012
:102AB00009FCAE2000F09CF8002000F099F81020EE
:102AC00000F096F8402000F093F8812000F090F894
:102AD000CF2000F08DF8A12000F08AF8C82000F087
:102AE00087F8A62000F084F8A82000F081F83F20A5
:102AF00000F07EF8D32000F07BF8002000F078F89A
:102B0000D52000F075F8802000F072F8D92000F090
:102B10006FF8F12000F06CF8DA2000F069F812206C
:102B200000F066F8DB2000F063F8402000F060F869
:102B3000202000F05DF8022000F05AF88D2000F00F
:102B400057F8142000F054F8A42000F051F8A62003
:102B500000F04EF8AF2000F04BF80020FFF788FFA0
:102B60000021BDE81040084600F02EB82DE9F047DE
:102B700090468A4605460026DFF848901CE020383B
:102B8000C7B27A2D04D90AF10100002500F0FF0A2E
:102B90005146284600F018F807EB4700002409EBDF
:102BA0004007385D00F036F8641CE4B2062CF8D318
:102BB000AD1D761CEDB2F6B218F806000028DED185
:102BC000BDE8F087E038000810B50446B031C8B25F
:102BD00000F00EF8102040EA141000F009F804F09C
:102BE0000F00BDE8104040F0010000F001B8000007
:102BF00001B584B00121642204A88DE807000B46CA
:102C0000002278210248FEF715FB05B000BD000048
:102C1000E402002001B584B00121642204A88DE8FB
:102C200007000B46402278210248FEF703FB05B05F
:102C300000BD0000E402002070B515460024FFF737
:102C4000C3FFFF20FFF7E6FFAC4201D2FF2000E008
:102C50008120FFF7DFFF641CE4B20C2CF4D30D2DB0
:102C600001D3FF2000E0E720FFF7D4FF0E2D01D3B2
:102C70003C2000E02420FFF7CDFFBDE870403C2061
:102C8000FFF7C8BF70477047FEF79CBB30B593B0E5
:102C900028216846FDF75DFA14210AA8FDF759FAC4
:102CA000002401200F940225049000951020119417
:102CB00005901094129407946846FEF7BFFD08B182
:102CC00072B6FEE70F20CDE90A040C940D940021A2
:102CD0000AA80E94FEF7D6FC08B172B6FEE70FA85C
:102CE0000F951194FEF758FC002801D072B6FEE74C
:102CF00013B030BD704700000148FFF794B80000E2
:102D000080030020F0B50268164B174C174D4FF0AA
:102D10008047984205D0B84203D0A04201D0A842D3
:102D200003D122F070064A683243984205D0B84277
:102D300003D0A04201D0A84203D122F44074CA6853
:102D400022434C6922F08002224302608A68C262F8
:102D50000A688262984201D10969016301214161D7
:102D6000F0BD0000002C01400004004000080040BD
:102D700010B501F01F030121046A99408C430462DD
:102D8000016A9A401143016210BD10B5846842EA9D
:102D9000032224F47F440A432243826010BD8268E8
:102DA00022F070020A4342F0070181607047000080
:102DB00030B5036A026A22F0010202624268846945
:102DC00024F073050C682C4323F002058B682B4319
:102DD0000A4DA8420BD123F00805CB6822F44072BB
:102DE0002B434D6923F0040315438A692A4342604B
:102DF000846149684163036230BD0000002C0140DA
:102E000030B5026A036A23F01003036243688469E1
:102E10000D6824F4E64444EA05248D6822F020027B
:102E200042EA05120B4DA8420ED1CD6822F0800275
:102E300042EA05124D6923F4406343EA85038D6934
:102E400022F0400243EA850343608461496881635C
:102E5000026230BD002C014030B5036A026A22F4E0
:102E6000807202624268C46923F4007324F073051F
:102E70000C682C438D6843EA05230C4DA8420ED103
:102E8000CD6823F4006343EA05234D6922F44052E0
:102E900042EA05128D6923F4806342EA051242601A
:102EA000C4614968C163036230BD0000002C014069
:102EB00030B5046A026A22F4805202624268C36931
:102EC0000D6823F4E64343EA05238D6824F4005497
:102ED00044EA0534064DA84204D14D6922F48042EB
:102EE00042EA85124260C36149680164046230BDF0
:102EF000002C014010B5036A046A24F00104046246
:102F0000846924F0F00444EA021423F00A020A431C
:102F10008461026210BD10B5036A046A24F01004D3
:102F20000462846923F0A00324F4704444EA02326A
:102F300043EA01118261016210BD000070B50446D0
:102F400000680169E26821F440511143016121697F
:102F5000A0680843616908432168CA6841F20C63AC
:102F60009A430243CA6020684169A26921F4407112
:102F7000114341611E492068884202D1FEF728FCB6
:102F800001E0FEF715FC00EBC00101EB00126068E8
:102F900064218000B2FBF0F3B3FBF1F36FF018068D
:102FA0007343B2FBF0F5B2FBF0F605EB8305322379
:102FB00003EB0515B5FBF1F5B6FBF1F605F0F005F1
:102FC00005EB0615B2FBF0F6B2FBF0F0B0FBF1F04A
:102FD0006FF01802504306EB800003EB0010B0FBCB
:102FE000F1F0216800F00F002844886070BD0000F7
:102FF000003801402DE9F041984617460E46044638
:10300000069D27E0681C25D02DB1FEF749F8A0EBFE
:103010000800A8421ED920680C3050E8001F21F497
:10302000D07140E80012002AF5D12068143050E831
:10303000001F21F0010140E80012002AF5D12020F4
:1030400084F8410084F84200002084F84000032006
:10305000BDE8F0812068006836EA000004D0002056
:10306000B842CFD00020F3E70120F9E7FEE70000E7
:103070000FB4054B10B503A9044A029800F028F8D4
:1030800010BC5DF814FB0000D53200082C000020B5
:103090000907090E002804DB00F1E02080F8001485
:1030A000704700F00F0000F1E02080F8141D704719
:1030B00002E008C8121F08C1002AFAD17047704701
:1030C000002001E001C1121F002AFBD1704700005F
:1030D0002DE9FF4F89B09B460446002506E02528D0
:1030E0000BD05A460B999047641C6D1C2078002821
:1030F000F5D10DB02846BDE8F08F0027B846012273
:10310000474900E0074314F8013F203B02FA03F06F
:103110000842F7D120782E2819D114F8010F47F072
:1031200004072A280ED06FF02F022078A0F130017A
:1031300009290CD808EB880102EB410100EB0108DA
:10314000641CF2E70A98641C50F8048B0A902078FB
:103150000028CED0642808D0692806D075281ED053
:103160005A460B9990476D1C58E00A994FF00A098E
:1031700001C90A91002802DA40422D2102E03905F6
:1031800004D52B218DF82010012103E0F90704D08C
:103190002021F7E78A4608AE0DE00021FAE70A99F8
:1031A0004FF00A0901C90A91F7E74946FDF7E7F828
:1031B000303106F8011D0028F7D1ADEB060000F113
:1031C0002009780701D44FF00108C84502DDA8EBBB
:1031D000090000E000208046002706E008A85A46C3
:1031E000C05D0B9990476D1C7F1C5745F6DB04E0D2
:1031F00030205A460B9990476D1CB8F10001A8F198
:103200000108F5DC05E016F8010B5A460B999047CA
:103210006D1CB9F10001A9F10109F4DC641C65E73A
:103220000928010010B590F8C820D0F8CC3030F84B
:1032300012401B1BC0F8CC3020F81210D0F8CC2064
:1032400064231144C0F8CC1090F8C820521CB2FB83
:10325000F3F403FB142280F8C82090F8D220642AEB
:1032600002D2521C80F8D220D2B2B1FBF2F1A0F807
:10327000D01010BD10B590F8C820D0F8CC3030F880
:1032800012401B1BC0F8CC3020F81210D0F8CC2014
:1032900064231144C0F8CC1090F8C820521CB2FB33
:1032A000F3F403FB142280F8C82090F8D220642A9B
:1032B00002D2521C80F8D220D2B2B1FBF2F1A0F8B7
:1032C000D01010BD002804D06C21491EFDD1401E35
:1032D000FAD1704713B50A23012269460248FFF765
:1032E00031F800981CBD0000C803002010B500286C
:1032F00021D0114B0022001F196803E0814203D83E
:103300000A4649680029F9D152B11368841A9C42CF
:1033100004D1006818441060104602E0506000E0DC
:10332000186039B102680B1A934203D10B681A4432
:1033300002604968416010BD30000020FEF74AF885
:10334000FFF7A4FCFFF75CFAFFF714FAFFF798FA0F
:10335000FFF7B6FAFFF752FBFFF71EFBFFF7A4FBE0
:10336000002211466F20FFF767FC0020FFF76DFB7E
:103370000020FFF761FB7448FEF7BAFC734E744CF3
:103380004FF47A7A4FF4FA7B4FF0010940F68C271C
:103390004FF00008642500BFFDF71EFAA0895045D4
:1033A00002D984F8098016E0608940F2C67188422B
:1033B00004D284F8098084F804800CE040F61301FC
:1033C000884204D984F8099084F804900CE02079AC
:1033D0006072012808D004215C48FEF793FE306833
:1033E000856364215BA028E0218AE0890B1A5B4594
:1033F00002DD207A401D03E0814207D9207A401C7B
:10340000C0B22072642810D925720EE0401A5845C7
:10341000207A03DD052806D9401F02E0012802D9E1
:10342000401E207201E084F8088004214748FEF71E
:1034300069FE3068217A81634AA0FFF719FE60892E
:10344000B84204D384F8079084F803900EE040F665
:10345000E911884204D284F8069084F8038005E0DC
:10346000E07918B9E07850B10020A071E279A17933
:1034700041A0FFF7FDFDA079012802D005E0012061
:10348000F3E7E07938B1012807D000212F48FEF793
:1034900087FE42A00FE0657121E0608A40F246514C
:1034A00088420BD284F8078084F8068000212748E0
:1034B000FEF776FE42A0FFF7DBFD1AE06089B84216
:1034C000607907D9012802D9401E607107E084F8AD
:1034D000058004E0401CC0B260716428DBD8002184
:1034E0001A48FEF70FFE3068617941633DA0FFF78F
:1034F000BFFD43A0FFF7BCFD0020FFF7DBF8207005
:10350000012812D0022818D0032818D004287FF4EC
:1035100043AF3CA0FFF7ACFDE08940F63C71884228
:10352000BFF43AAFC830E08136E739A0FFF7A0FD1D
:10353000E089C828F8D9C838F5E738A000E03AA0F3
:10354000FFF796FD28E700008003002038030020E5
:10355000000000204C45445F50574D206F6E3A25C7
:10356000640D0A004C45445F50574D206F6E203A61
:1035700025640D0A00000000636861726765204FD2
:103580004E204F464625642C6368617267655F6D07
:103590006F64653A25640D0A000000006C696E6571
:1035A0003A3235333A626174746172795F6368618B
:1035B0007267655F50574D206F66660D0A00000008
:1035C0006C696E653A3234393A6261747461727949
:1035D0005F6368617267655F50574D206F66660D67
:1035E0000A000000626174746172795F63686172DD
:1035F00067655F50574D206F6E203A25640D0A00B5
:103600000D0A00004B4559335F505245530D0A00D7
:103610004B4559305F505245530D0A004B455931C7
:103620005F505245530D0A004B4559325F50524589
:10363000530D0A00F0B50B30154D20F007010024A2
:10364000144A0FE003688B420BD38B4205D95E1AF4
:1036500043184768C3E9006700E04368136002C08D
:1036600004E0021D10680028ECD12046002802D199
:10367000286808B10020F0BD064A07481060074AD4
:10368000121A22F00702C0E9002401202860D7E7BF
:103690003400002030000020140400201006002018
:1036A0002DE9F05F04461E4691468A460027042015
:1036B000DDF828B0FFF7BEFF05464FF47A70B6FB81
:1036C000F0F16420B6FBF0F0303129700A21B0FB34
:1036D000F1F201FB1202B6FBF1F030326A70B0FB7E
:1036E000F1F201FB1202B6FBF1F0303201FB106186
:1036F000AA703031E9701FE0203800F0FF087A2C02
:1037000004D90AF10100002400F0FF0A51462046C6
:10371000FFF75AFA394808EB4801002600EB410848
:1037200018F80600FFF776FA761CF6B2062EF7D3E5
:10373000A41D7F1CE4B2FFB219F807000028DBD1FA
:1037400028780026302808D168780126302804D14E
:10375000A8780226302800D10326DFF8A090A85DC3
:10376000203800F0FF087A2C04D90AF10100002467
:1037700000F0FF0A51462046FFF726FA08EB480002
:10378000002709EB400800BF18F80700FFF742FACE
:103790007F1CFFB2062FF7D3A41D761CF6B2E4B24D
:1037A000032EDCD900271FE0203800F0FF087A2C18
:1037B00004D90AF10100002400F0FF0A5146204616
:1037C000FFF702FA08EB4800002609EB400800BFAB
:1037D00018F80600FFF71EFA761CF6B2062EF7D38D
:1037E000A41D7F1CE4B2FFB21BF807000028DBD148
:1037F0002846BDE8F05FFFF779BD0000E03800081B
:103800002DE9F04D07460E46FCF7D4FE04460D4662
:103810003A463346FCF7CAFEDFF86CA0DFF86CB01E
:103820001B4B0746884616F0004F4FF000020AD0A7
:10383000FCF704FF0AD900225B4638464146FCF7F4
:1038400015FF1BD212E0FCF7F9FE08D20022534606
:1038500020462946FCF7A7FE04460D460EE000224E
:103860005B4638464146FCF701FF07D80022534625
:1038700020462946FCF7F6FD04460D463146204613
:1038800065F31E01BDE8F08D0000F03F0000E03F51
:103890000000E0BF91523CBE7D3C4A8960C0C0E060
:1038A000F0783F1E010202030405060708090A0B0F
:1038B0000C0D0E0F10100102020304050607080983
:1038C0000A0B0C0D0E0F101000000000000000008D
:1038D00001020304060708090000000001020304B6
:1038E0000000000000000000002F000000000700A2
:1038F000070000147F147F1400242A7F2A1200621C
:1039000064081323003649552250000005030000C7
:1039100000001C224100000041221C000014083E4F
:1039200008140008083E0808000000A06000000815
:103930000808080800006060000000201008040269
:10394000003E5149453E0000427F40000042615127
:103950004946002141454B31001814127F100027C1
:1039600045454539003C4A49493000017109050384
:1039700000364949493600064949291E00003636B5
:103980000000000056360000000814224100001418
:1039900014141414000041221408000201510906F5
:1039A00000324959513E007C1211127C007F494976
:1039B0004936003E41414122007F4141221C007FA7
:1039C00049494941007F09090901003E4149497AB5
:1039D000007F0808087F0000417F4100002040412F
:1039E0003F01007F08142241007F40404040007F9B
:1039F000020C027F007F0408107F003E4141413EDF
:103A0000007F09090906003E4151215E007F091926
:103A100029460046494949310001017F0101003F23
:103A20004040403F001F2040201F003F4038403FA3
:103A30000063140814630007087008070061514907
:103A4000454300007F41410000552A552A5500009A
:103A500041417F0000040201020400404040404018
:103A6000000001020400002054545478007F4844B0
:103A7000443800384444442000384444487F0038E7
:103A80005454541800087E0901020018A4A4A47C10
:103A9000007F080404780000447D400000408084DA
:103AA0007D00007F102844000000417F4000007C22
:103AB00004180478007C080404780038444444382E
:103AC00000FC242424180018242418FC007C08047A
:103AD000040800485454542000043F444020003C53
:103AE0004040207C001C2040201C003C4030403CDA
:103AF000004428102844001CA0A0A07C004464546A
:103B00004C44141414141414283B00080000002022
:103B100038000000B0300008603B0008380000208A
:103B2000D8090000C030000800000E0000000000AE
:103B3000640000000000F50500000000FE01000028
:103B40000100000010000000000000000024F4004C
:103B50000100000000000000000000000000000064
:04000005080000ED02
:00000001FF
